:020000040800F2
:10000000D8380020910500087D0200087F02000812
:100010008B02000897020008A302000800000000FD
:10002000000000000000000000000000AF02000817
:10003000B102000800000000A7050008B302000894
:10004000AB050008AB050008AB050008B7020008C7
:10005000AB050008AB050008B5020008AB050008B9
:10006000AB050008AB050008AB050008AB050008B0
:10007000AB050008AB050008AB050008AB050008A0
:10008000AB050008AB050008AB050008AB05000890
:10009000AB050008AB050008AB050008AB05000880
:1000A000AB050008AB050008AB050008AB05000870
:1000B000AB05000895260008AB050008AB05000855
:1000C000AB050008AB050008AB050008AB05000850
:1000D000AB05000887220008575F0008AB05000841
:1000E000AB050008AB050008AB05000800F002F8FE
:1000F00000F0B4F80AA090E8000C82448344AAF10E
:100100000107DA4501D100F0A9F8AFF2090EBAE80B
:100110000F0013F0010F18BFFB1A43F0010318473B
:1001200048CF000068CF00000A444FF0000C10F8E0
:10013000013B13F0070408BF10F8014B1D1108BF65
:1001400010F8015B641E05D010F8016B641E01F805
:10015000016BF9D113F0080F1EBF10F8014BAD1C55
:100160000C1B09D16D1E58BF01F801CBFAD505E073
:1001700014F8016B01F8016B6D1EF9D59142D6D3CD
:10018000704700000023002400250026103A28BFF5
:1001900078C1FBD8520728BF30C148BF0B607047F9
:1001A0006E2908F0F785702908F0958166290CF012
:1001B000998065290CF0968067290CF0938061295D
:1001C0000CF0928003681B0A28BF41F08001692966
:1001D00008F00681642908F00381752908F0008180
:1001E0006F2909F0F480782908F06181E92909F084
:1001F0008F80E42909F08C80F52909F08980EF29A6
:1002000009F0F180F82908F060810368DB0928BF54
:1002100041F08001632909F01080732909F01580ED
:10022000E32909F06B83F32909F0708300207047FC
:100230001FB59DE8030008F001FD09F027F904004F
:10024000002000210BF056F8401C606000200021C7
:100250000BF066F8E0601FBD10B510BD09F0AEFDF3
:100260001146FFF7E5FF03F097FB09F0CCFD03B45F
:10027000FFF7F2FF03BC09F03DFE000070470EA13E
:100280001C4801F0DCFF00BFFEE71BA1194801F08C
:10029000D6FF00BFFEE727A1164801F0D0FF00BF40
:1002A000FEE733A1134801F0CAFF00BFFEE7704725
:1002B00070477047704770470D0A2A2A2A2A2A2A4F
:1002C0002A2A2A2A2A2A2A2A2A2A2A2A2A486172F1
:1002D000644661756C745F48616E646C65722A2A4D
:1002E0002A2A2A2A2A2A2A2A2A2A2A2A2A2A2A2A6E
:1002F0002A0D0A00003801400D0A2A2A2A2A2A2A31
:100300002A2A2A2A2A2A2A2A2A2A2A2A2A4D656DAC
:100310004D616E6167655F48616E646C65722A2A23
:100320002A2A2A2A2A2A2A2A2A2A2A2A2A2A2A2A2D
:100330002A0D0A000D0A2A2A2A2A2A2A2A2A2A2AC1
:100340002A2A2A2A2A2A2A2A2A4275734661756C81
:10035000745F48616E646C65722A2A2A2A2A2A2AE6
:100360002A2A2A2A2A2A2A2A2A2A2A2A0D0A00007E
:100370000D0A2A2A2A2A2A2A2A2A2A2A2A2A2A2A1A
:100380002A2A2A2A2A55736167654661756C745F4B
:1003900048616E646C65722A2A2A2A2A2A2A2A2A25
:1003A0002A2A2A2A2A2A2A2A2A2A0D0A0000000092
:1003B0000CB50020019000906C48006840F480303B
:1003C0006A49086000BF6948006800F40030009086
:1003D0000198401C0190009818B90198B0F5A06FE1
:1003E000F1D16248006800F4003010B101200090A3
:1003F00001E0002000900098012843D15C4800688B
:1004000040F010005A4908600846006820F00300D8
:1004100008600846006840F00200086053484068E1
:10042000524948600846406848600846406840F4C1
:10043000806048600846406820F47C1048600846A8
:10044000406840F4E81048600846006840F080705A
:10045000086000BF4548006800F000700028F9D02F
:100460004248406820F00300404948600846406820
:1004700040F00200486000BF3C48406800F00C00BB
:100480000828F9D10CBD10B5FFF792FF10BD10B5CB
:100490003648006840F0010034490860084640686A
:1004A00034490840314948600846006832490840EC
:1004B0002E4908600846006820F48020086008463D
:1004C000406820F4FE0048604FF41F008860FFF78A
:1004D000DAFF4FF000602949086010BD10B5002117
:1004E00000200022214B5B6803F00C0121B104299C
:1004F00006D0082928D107E0214B224C236027E0B1
:100500001F4B204C236023E0184B5B6803F47010F2
:10051000164B5B6803F48032022303EB904022B950
:10052000194B4343174C23600DE0104B5B6803F4F9
:10053000003323B1144B4343124C236003E0104BB0
:100540004343104C236003E00D4B0E4C236000BF6F
:1005500000BF064B5B68C3F303130C4CE15C094B13
:100560001B68CB40074C236010BD00000010024008
:10057000002002400000FFF8FFFFF6FE08ED00E05B
:1005800000127A000000002000093D000400002055
:100590000948804709480047FEE7FEE7FEE7FEE717
:1005A000FEE7FEE7FEE7FEE7FEE7FEE70448054953
:1005B000054A064B704700008F040008ED00000854
:1005C000D82E0020D8380020D8300020D830002085
:1005D00031490143314A1160704770B50021002351
:1005E0000F22C47804B32D4C246804F4E064C4F5ED
:1005F000E064210AC1F10403CA40447804FA03F11B
:100600008478144021430901254C0678A1550478CB
:1006100004F01F050124AC4005786D11AD0005F113
:10062000E025C5F8004109E0047804F01F05012425
:10063000AC401C4D0678761145F8264070BD1A4A2C
:100640000A400243154B1B1F1A60704739B1134A09
:10065000121D12680243114B1B1D1A6006E00F4A5F
:10066000121D126882430D4B1B1D1A60704704282F
:1006700008D14FF0E021096941F004014FF0E02278
:10068000116107E04FF0E021096921F004014FF00A
:10069000E0221161704700000000FA050CED00E057
:1006A00000E400E080E100E080FFFF1F10B5044699
:1006B000CC48844208D10121042000F02DFB002108
:1006C000042000F029FB46E0C748844208D10121FC
:1006D000082000F021FB0021082000F01DFB3AE07B
:1006E000C248844208D10121102000F015FB0021EE
:1006F000102000F011FB2EE0BD48844208D10121FA
:10070000202000F009FB0021202000F005FB22E062
:10071000B848844208D10121402000F0FDFA0021B0
:10072000402000F0F9FA16E0B348844208D10121D4
:10073000802000F0F1FA0021802000F0EDFA0AE0BC
:10074000AE48844207D10121801500F0E5FA00216E
:10075000A01500F0E1FA10BD10B50121084600F027
:10076000DBFA0021012000F0D7FA10BD2DE9F0419D
:10077000024600250026002000230024002791F8CF
:1007800003C00CF00F0591F803C00CF0100CBCF185
:10079000000F03D091F802C04CEA050591F800C0A3
:1007A000BCF1000F31D0146800202BE04FF0010C99
:1007B0000CFA00F3B1F800C00CEA03069E4220D107
:1007C00083004FF00F0C0CFA03F7BC4305FA03FC4F
:1007D0004CEA040491F803C0BCF1280F06D14FF095
:1007E000010C0CFA00FCC2F814C00AE091F803C036
:1007F000BCF1480F05D14FF0010C0CFA00FCC2F817
:1008000010C0401C0828D1D31460B1F800C0BCF15E
:10081000FF0F34DD546800202EE000F1080C4FF08B
:10082000010808FA0CF3B1F800C00CEA03069E4276
:1008300021D183004FF00F0C0CFA03F7BC4305FAEB
:1008400003FC4CEA040491F803C0BCF1280F05D165
:1008500000F1080C08FA0CF8C2F8148091F803C0F3
:10086000BCF1480F07D100F1080C4FF0010808FA5D
:100870000CF8C2F81080401C0828CED35460BDE8A4
:10088000F0814FF6FF710180022181700421C17057
:1008900070470246002093680B400BB1012000E036
:1008A000002070470146886880B2704702460020E9
:1008B000D3680B400BB1012000E0002070470146D7
:1008C000C86880B2704701617047416170470AB1E2
:1008D000016100E041617047C16070474FF48032B0
:1008E0000A4382618161826182698269704702463E
:1008F0000020434B18684FF68073184040EA0210FE
:1009000008433F4B186070473E49C8617047F0B5D7
:100910000A46002300240021002500F00046B6F11D
:10092000004F02D1364EF16901E0354E7168C0F3D7
:10093000034583B200F44016B6F5401F08D121F0FC
:1009400070612F4E766826F070662D4F7E6012E043
:1009500000F48016B6F5801F06D1032606FA05F4CA
:10096000A14341F0706106E0460D360103FA06F638
:10097000B14341F0706122B1460D360103FA06F62B
:10098000314300F00046B6F1004F02D11C4EF16138
:1009900001E01B4E7160F0BD30B500228B071C0FCB
:1009A0000F2303FA04F2164B08338C1053F824304B
:1009B0009343134C08348D1044F8253023468C1093
:1009C00053F824308C07240F00FA04F423430C4C12
:1009D00008348D1044F8253030BD0A49DC310860F8
:1009E0007047000000080140000C01400010014069
:1009F0000014014000180140001C0140002001408B
:100A00000000014000002042DF48006840F0010083
:100A1000DD49086008464068DC490840DA4948601A
:100A200008460068DA490840D74908600846006867
:100A300020F4802008600846406820F4FE004860EA
:100A40004FF41F0088607047CF49096821F4803156
:100A5000CD4A11601146096821F480211160B0F57A
:100A6000803F03D0B0F5802F0ED106E0C64909685B
:100A700041F48031C44A116007E0C349096841F478
:100A8000A021C14A116000E000BF00BF704710B54F
:100A900001460022002300204A11012A02D1BA4C4B
:100AA000236806E0022A02D1B74C236A01E0B64C63
:100AB000636A01F01F02012494401C400CB1012024
:100AC00000E0002010BD38B5002000900024002573
:100AD00000BF3120FFF7DBFF05460098401C009067
:100AE0000098B0F5A06F01D0002DF2D03120FFF7B3
:100AF000CEFF08B1012400E00024204638BD0146A5
:100B00000020A14A106820F0F80040EAC1001060FF
:100B10007047A04908607047024600209A4B586809
:100B200020F47C1042EA01031843974B5860704749
:100B300098490866704701460020934A506820F0A3
:100B400003000843506070478F48406800F00C0075
:100B50007047014600208C4A506820F0F00008439E
:100B60005060704701460020874A506820F4E060DA
:100B700008435060704701460020834A506820F4C3
:100B8000605040EAC1005060704729B17E4A527AF5
:100B900002437D4B5A7204E07B4A527A82437A4B7D
:100BA0005A7270477B49D83108607047014600206F
:100BB000754A506820F44040084350607047002157
:100BC000714A20321170704A82F82010012802D038
:100BD00004280AD104E001216B4A2032117005E09B
:100BE0000521694A2032117000E000BF00BF704744
:100BF0006949086070476449096A0143624A1162A1
:100C00007047654944390860704730B500210022BB
:100C1000002400235C4D6D6805F00C0121B104290E
:100C200005D0082923D105E05C4D056022E05B4D2D
:100C300005601FE0544D6D6805F47012524D6D68EB
:100C400005F48034022505EB92421CB9544D5543FE
:100C500005600BE04C4D6D6805F400351DB1504D3D
:100C60005543056002E04D4D5543056002E04B4D94
:100C7000056000BF00BF444D6D6805F0F001090933
:100C8000484D6B5C0568DD4045603F4D6D6805F47F
:100C9000E061090A434D6B5C4568DD4085603A4D73
:100CA0006D6805F46051C90A3E4D6B5C4568DD40D6
:100CB000C560354D6D6805F44041890B3A4D6B5C5C
:100CC000C568B5FBF3F5056130BD29B12E4A5269FF
:100CD00002432D4B5A6104E02B4A526982432A4B4E
:100CE0005A61704729B1284A92690243264B9A619A
:100CF00004E0254A92698243234B9A61704729B1E7
:100D0000214AD2690243204BDA6104E01E4AD269CB
:100D100082431D4BDA61704729B11B4AD2680243F6
:100D2000194BDA6004E0184AD2688243164BDA6045
:100D3000704729B1144A12690243134B1A6104E047
:100D4000114A12698243104B1A61704712494039A7
:100D5000086070470F49C86470470B49C8717047F5
:100D60000948406A40F08070074948627047014670
:100D70000020054A92680A400AB1012000E00020E4
:100D80007047014988727047001002400000FFF868
:100D9000FFFFF6FE000042428004424200127A0049
:100DA00000093D00140000202400002010B5044676
:100DB000FB48844209D101218803FFF7ADFF0021E0
:100DC0004FF48040FFF7A8FF32E0F648844209D193
:100DD00001214804FFF7ADFF00214FF40030FFF779
:100DE000A8FF25E0F048844209D101218804FFF7DB
:100DF000A0FF00214FF48020FFF79BFF18E0EB4895
:100E0000844209D10121C804FFF793FF00214FF468
:100E10000020FFF78EFF0BE0E548844208D1012156
:100E20000805FFF786FF00214FF48010FFF781FFD0
:100E300010BD2DE9F04786B005460E460024A246B7
:100E400000BFA1460027B08900B100BF2F462C8A01
:100E50004CF6FF700440F08804432C82AC894EF6B7
:100E6000F3100440B0883189084371890843044372
:100E7000AC81AC8A4FF6FF400440B0890443AC8299
:100E800001A8FFF7C2FEC648874202D1DDF810A0D4
:100E900001E0DDF80CA0A88900F4004040B10AEBA5
:100EA000CA0000EB0A1031684900B0FBF1F807E016
:100EB0000AEBCA0000EB0A1031688900B0FBF1F8B8
:100EC0006420B8FBF0F004012009642101FB1089C3
:100ED000A88900F4004040B1322000EBC900B0FB0B
:100EE000F1F000F00700044308E0322000EB0910A5
:100EF0006421B0FBF1F000F00F0004432C8106B038
:100F0000BDE8F0874FF41651016000218180C18057
:100F100001810C21418100218181704710B5024679
:100F20000020108A4FF2FF0318400B884C8823439F
:100F30008C882343CC8823431843108210BD0021A2
:100F4000018041808180C180704721B1828942F453
:100F50000052828104E082894DF6FF731A4082813B
:100F60007047F0B50346002400260025002040F617
:100F70006A17B94200D100BF1846C1F3421401F00C
:100F80001F06012707FA06F5012C01D10C3004E0F9
:100F9000022C01D1103000E014301AB107682F4341
:100FA000076002E00768AF430760F0BD1AB1838AAB
:100FB0000B43838202E0838A8B4383827047028AD9
:100FC0004FF6F0731A400282028A0A430282704787
:100FD00082894FF2FF731A40828182890A4382819B
:100FE000704721B1828942F00202828104E0828945
:100FF0004FF6FD731A4082817047028A4FF6DF7305
:101000001A400282028A0A430282704721B1028A90
:1010100042F48042028204E0028A4BF6FF731A40D7
:1010200002827047C1F308028280704701468888B7
:10103000C0F308007047818941F001018181704748
:10104000028BD2B20283028B42EA012202837047F2
:10105000028B02F47F420283028B0A4302837047B1
:1010600021B1828A42F02002828204E0828A4FF615
:10107000DF731A408282704721B1828A42F01002E7
:10108000828204E0828A4FF6EF731A4082827047B0
:1010900021B1828A42F00802828204E0828A4FF6FD
:1010A000F7731A408282704721B1828942F400426C
:1010B000828103E08289C2F30E028281704721B1EE
:1010C000828A42F40062828204E0828A4FF2FF73D5
:1010D0001A4082827047828A4FF6FB731A408282DE
:1010E000828A0A438282704721B1828A42F00202D8
:1010F000828204E0828A4FF6FD731A408282704732
:1011000002460020B1F5007F00D100BF13880B40DC
:101110000BB1012000E00020704701F40072B2F52D
:10112000007F00D100BFCA430280704770B50246FD
:10113000002400230025002040F66A16B14200D1A9
:1011400000BFC1F3421501F01F03012606FA03F3A5
:10115000012D02D19689334006E0022D02D1168A74
:10116000334001E0968A33400C12012606FA04F45B
:101170001688344013B10CB1012000E0002070BD8E
:1011800010B50022002340F66A14A14200D100BF2E
:101190000A1201249440A3B2DC43048010BD000075
:1011A000003801400044004000480040004C00402E
:1011B0000050004010B50446FE48844208D1012189
:1011C000C014FFF7A9FD0021E014FFF7A5FDC4E05E
:1011D000B4F1804F08D101210846FFF7AAFD002194
:1011E0000120FFF7A6FDB8E0F348844208D10121B1
:1011F0000220FFF79EFD00210220FFF79AFDACE0E0
:10120000EE48844208D101210420FFF792FD00211D
:101210000420FFF78EFDA0E0E948844208D10121B7
:101220000820FFF786FD00210820FFF782FD94E0EB
:10123000E448844208D101211020FFF77AFD002103
:101240001020FFF776FD88E0DF48844208D10121B5
:101250002020FFF76EFD00212020FFF76AFD7CE0D3
:10126000DA48844208D101214014FFF755FD0021DE
:101270006014FFF751FD70E0D548844209D1012187
:10128000C804FFF749FD00214FF40020FFF744FD9B
:1012900063E0D048844209D101210805FFF73CFDF5
:1012A00000214FF48010FFF737FD56E0CA48844212
:1012B00009D101214805FFF72FFD00214FF400104F
:1012C000FFF72AFD49E0C548844208D101214020AA
:1012D000FFF72FFD00214020FFF72BFD3DE0C04828
:1012E000844208D101218020FFF723FD00218020C6
:1012F000FFF71FFD31E0BB48844208D10121801572
:10130000FFF717FD0021A015FFF713FD25E0B648F4
:10131000844209D101210804FFF7FEFC00214FF4AB
:101320008030FFF7F9FC18E0B048844209D1012170
:101330004804FFF7F1FC00214FF40030FFF7ECFC0C
:101340000BE0AB48844208D101218804FFF7E4FC9C
:1013500000214FF48020FFF7DFFC10BD002202883F
:10136000944B98420ED0994B98420BD0B0F1804FDD
:1013700008D0914B984205D0904B984202D0904BA8
:10138000984204D14FF68F731A404B881A438D4B05
:10139000984207D08C4B984204D04FF6FF431A4036
:1013A000CB881A4302808B8883850B880385814B09
:1013B00098420BD0854B984208D08B4B984205D071
:1013C0008A4B984202D08A4B984201D10B7A03860D
:1013D00001238382704770B5002400220023058C0E
:1013E0004FF6FE7635400584028C8388048B4FF6D9
:1013F0008F752C40B51E2C400D882C43751E2A403D
:101400000D892A434D882A436A4DA8420BD06F4D5F
:10141000A84208D0744DA84205D0744DA84202D00D
:10142000734DA84213D14FF6F7752A404D892A43D0
:101430004FF6FB752A408D882A434FF6FF652B40F7
:101440004FF6FF552B408D892B43CD892B4383804D
:101450000483CD888586028470BD70B50024002287
:101460000023058C4FF6EF7635400584028C838887
:10147000048B48F6FF752C404FF6FF452C400D8835
:101480004FF6FF7606EA05252C434FF6DF752A4016
:101490000D8906EA05152A434D8806EA05152A43F3
:1014A000444DA84202D0494DA8421DD14FF67F7548
:1014B0002A404D894FF6FF7606EA05152A434FF676
:1014C000BF752A408D8806EA05152A434FF6FF3579
:1014D0002B404FF2FF752B408D8906EA85052B4383
:1014E000CD8906EA85052B4383800483CD88058753
:1014F000028470BD70B5002400220023058C4FF6D5
:10150000FF6635400584028C8388848B4FF68F7587
:101510002C404FF6FC752C400D882C434FF6FF55A0
:101520002A400D894FF6FF7606EA05252A434D88A5
:1015300006EA05252A431F4DA84202D0234DA842A2
:101540001DD14FF2FF752A404D894FF6FF7606EA0E
:1015500005252A434FF6FF352A408D8806EA0525E2
:101560002A434EF6FF752B404DF6FF752B408D89B3
:1015700006EA05152B43CD8906EA05152B43838022
:101580008483CD888587028470BD70B500220023D6
:101590000024058C4EF6FF7635400584038C848844
:1015A000828B48F6FF752A404FF6FF452A400D888A
:1015B00020E00000002C0140000400400008004032
:1015C000000C0040001000400014004000340140B6
:1015D000004C014000500140005401400018004000
:1015E000001C004000200040004001400044014039
:1015F000004801404FF6FF7606EA05252A434DF6DE
:10160000FF752B400D8906EA05352B434D8806EA08
:1016100005352B43FA4DA84202D0FA4DA84208D115
:101620004BF6FF752C408D894FF6FF7606EA85153F
:101630002C4384808283CD88A0F84050038470BD01
:10164000828B4FF2FF331A408283828B4FF6FF73F7
:1016500003EA01231A4382837047F0B50C4615460E
:10166000002200210026078C4EF6FF7C07EA0C07BB
:101670000784828B018C4FF6FF7707EA043640F629
:10168000FF473A404FF6FF7707EA05273A434FF600
:10169000FF7707EA03373A43D94FB8420ED0D94F04
:1016A000B8420BD0B0F1804F08D0D74FB84205D028
:1016B000D64FB84202D0D64FB84206D14DF6FF778A
:1016C000394046F48057394305E047F6FF57394023
:1016D00044F48057394382830184F0BD828B4FF6F6
:1016E000F3731A408283828B0A4382837047F0B57A
:1016F0000C461546002200210026078C4FF6FF6C91
:1017000007EA0C070784828B018C4FF6FF7707EA04
:1017100004264FF60C773A404FF6FF7707EA031797
:101720002F433A43B64FB8420ED0B64FB8420BD013
:10173000B0F1804F08D0B44FB84205D0B34FB84293
:1017400002D0B34FB84206D14FF6FF57394046F4A6
:101750008077394305E04FF2FF57394044F48077F2
:10176000394382830184F0BD028B4FF2FF331A406C
:101770000283028B4FF6FF7303EA01231A430283AD
:101780007047F0B50C461546002200210026078C54
:101790004FF6EF7C07EA0C070784028B018C4FF6AB
:1017A000FF7707EA041640F6FF473A404FF6FF7707
:1017B00007EA03373A434FF6FF7707EA05273A432C
:1017C0008F4FB8420ED08F4FB8420BD0B0F1804F40
:1017D00008D08D4FB84205D08C4FB84202D08C4F04
:1017E000B84206D14FF6DF77394046F0100739434B
:1017F00005E04FF65F77394044F010073943028324
:101800000184F0BD028B4FF6F3731A400283028B02
:101810000A4302837047F0B50C46154600220021AA
:10182000068C4FF6FE773E400684028B018C4FF605
:101830000C7632407E1C06EA03162E433243704E6D
:10184000B0420ED06F4EB0420BD0B0F1804F08D0F6
:101850006D4EB04205D06D4EB04202D06C4EB042DB
:1018600006D14FF6FD76314044F00106314305E0E4
:101870004FF6F576314044F001063143028301848E
:10188000F0BD70B505460C465D4885420ED05D48FA
:1018900085420BD0B5F1804F08D05B48854205D01A
:1018A0005A48854202D05A48854200D100E000BF24
:1018B000208850B92389A28861882846FFF7ABFFAA
:1018C000E1882846FFF79EFF25E0208804280AD1FA
:1018D0002389A28861882846FFF753FFE1882846BC
:1018E000FFF742FF17E0208808280AD12389A28841
:1018F00061882846FFF7FBFEE1882846FFF7EEFEE9
:1019000009E02389A28861882846FFF7A6FEE188BE
:101910002846FFF795FE70BD2DE9F04105460C46BF
:1019200000260127608808B9022600E00026A0886A
:10193000012801D1022700E001272088A0B92389CE
:10194000A28861882846FFF766FFE1882846FFF7EE
:1019500059FF23893A4631462846FFF712FFE188AE
:101960002846FFF701FF13E02389A28861882846F3
:10197000FFF707FFE1882846FFF7F6FE23893A467E
:1019800031462846FFF747FFE1882846FFF73AFF30
:10199000BDE8F0810A884B881A438B881A43CB88AC
:1019A0001A430B891A434B891A438B891A43A0F8AF
:1019B000442070474FF6FF71818000210180C18073
:1019C0004180017270470021018041808180C18087
:1019D000018141818181C181704700210180418065
:1019E000012181800021C180018170470021018097
:1019F00041808180C18001814181818170470000E7
:101A0000002C014000340140000400400008004068
:101A1000000C004021B1028842F00102028004E083
:101A200002884FF6FE731A400280704731B1B0F859
:101A3000442042F40042A0F8442005E0B0F84420DD
:101A4000C2F30E02A0F8442070471AB183890B43F9
:101A5000838102E083898B43838170478182704751
:101A600041EA0203A0F8483070471AB183890B435A
:101A7000838102E083898B438381704701894FF61C
:101A8000F8721140018170470A46002101894FF622
:101A90008F73194011430181704730B504460D46DC
:101AA00029462046FFF7F0FF208940F007002081FB
:101AB00030BD2DE9F04104460D4616461F46602D07
:101AC00006D13B46012231462046FFF75AFE05E08B
:101AD0003B46012231462046FFF79DFE294620461F
:101AE000FFF7D2FF208940F007002081BDE8F08198
:101AF00030B50C4600210189C9B24FF6FF7505EAE1
:101B00000325154325432943018130BD2DE9F041CB
:101B100005460E4617469846002443463A46314647
:101B20002846FFF7E5FF2C894FF6F870044044F093
:101B300007044FF68F70044044F070042C81BDE818
:101B4000F081F0B504460D4616461F463B46324628
:101B500029462046FFF7CCFF208940F480402081B1
:101B6000F0BD0185828270470A46002101884FF648
:101B70008F731940114301807047F0B50C4615462C
:101B80001E460021002200230189028B038C4FF6A0
:101B9000F877394021434FF6FC473A4040F20117AD
:101BA0003A434FF6DD773B404FF6FF7707EA0617DB
:101BB0002F433B43018102830384F0BD0A46002189
:101BC000018B4FF68F7319401143018370470A460A
:101BD0000021018B48F6FF7319404FF6FF7303EAAB
:101BE00002231943018370470A460021818B4FF677
:101BF0008F7319401143818370470A460021818BFE
:101C000048F6FF7319404FF6FF7303EA02231943A6
:101C10008183704721B1028842F08002028004E093
:101C200002884FF67F731A400280704721B1828884
:101C300042F00402828004E082884FF6FB731A406F
:101C40008280704721B1828842F00802828004E0DD
:101C500082884FF6F7731A408280704721B18288DC
:101C600042F00102828004E082884FF6FE731A403F
:101C7000828070470A460021018B4FF6F7731940A6
:101C80001143018370470A460021018B4FF2FF7315
:101C900019404FF6FF7303EA02231943018370478B
:101CA0000A460021818B4FF6F77319401143818357
:101CB00070470A460021818B4FF2FF7319404FF69F
:101CC000FF7303EA02231943818370470A46002108
:101CD000018B4FF6FB7319401143018370470A468D
:101CE0000021018B4FF6FF3319404FF6FF7303EAD3
:101CF00002231943018370470A460021818B4FF666
:101D0000FB7319401143818370470A460021818B80
:101D10004FF6FF3319404FF6FF7303EA02231943CE
:101D2000818370470A460021018B4FF67F7319406B
:101D30001143018370470A460021018BC1F30E0154
:101D40004FF6FF7303EA02231943018370470A46E3
:101D50000021818B4FF67F731940114381837047B7
:101D60000A460021818BC1F30E014FF6FF7303EA8F
:101D700002231943818370470A460021018C4FF6E4
:101D8000FD7319401143018470470A460021018CFC
:101D90004FF6F77319401143018470470A4600213A
:101DA000018C4FF6DF7319404FF6FF7303EA0213FD
:101DB0001943018470470A460021018C4FF67F7356
:101DC00019404FF6FF7303EA021319430184704769
:101DD0000A460021018C4FF6FF5319404FF6FF735E
:101DE00003EA02231943018470470A460021018C4B
:101DF0004FF2FF7319404FF6FF7303EA02231943B2
:101E0000018470470A460021018C4DF6FF7319408A
:101E10004FF6FF7303EA023319430184704730B56C
:101E2000002301248C40A3B2048C9C430484048CC2
:101E300002FA01F5ADB22C43048430BD30B5002365
:101E400004248C40A3B2048C9C430484048C02FAC6
:101E500001F5ADB22C43048430BD70B503460020BB
:101E600000241846183001258D40ACB21D8CA543C6
:101E70001D8409B1082909D100EB6100056825F02E
:101E8000700505600568154305600EE00D1FC5F37C
:101E90004E052844056825F4E045056005684FF6C1
:101EA000FF7606EA02263543056070BD21B102883F
:101EB00042F00202028004E002884FF6FD731A40ED
:101EC0000280704721B1028842F00402028004E0DF
:101ED00002884FF6FB731A400280704721B1828856
:101EE00042F08002828004E082884FF67F731A40BD
:101EF0008280704702884FF6F7731A40028002888A
:101F00000A430280704782884FF68F731A4082809E
:101F100082880A438280704702894FF6F8731A401C
:101F2000028102890A430281704702894FF67F735A
:101F30001A40028102890A430281704781847047F6
:101F40008185704781867047018770478187704718
:101F5000A0F84010704702884FF6FF431A400280F5
:101F600002880A43028070470146888E7047014606
:101F7000088F70470146888F70470146B1F84000CE
:101F800070470146888C70470146088D70470246AD
:101F90000020138A0B400BB1012000E000207047A5
:101FA000CA430282704730B5024600200023002455
:101FB000158A05EA0103958905EA010413B10CB1FC
:101FC000012000E0002030BDCA43028270470000BB
:101FD0004FF0E020006920F004004FF0E02108619C
:101FE0000920364908700846007800EB4001C1EB33
:101FF000C0104FF6FF7101EAC000314908807047F8
:10200000002120F07F402D4A127842434FF0E02318
:102010005A6100229A6101221A6100BF4FF0E0224A
:10202000116901F001021AB101F48032002AF5D0E1
:1020300000224FF0E0231A619A617047002100B935
:10204000704720F07F401E4A128842434FF0E02341
:102050005A6100229A6101221A6100BF4FF0E0220A
:10206000116901F001021AB101F48032002AF5D0A1
:1020700000224FF0E0231A619A6100BFE0E770B5DB
:102080000446002600254FF4FA7094FBF0F0C6B227
:102090004FF4FA7094FBF0F100FB114085B205E0BB
:1020A0004FF4FA70FFF7CAFF701EC6B2002EF7D1C8
:1020B00015B12846FFF7C2FF70BD000028000020C0
:1020C0002A00002010B586B0044601210420FEF746
:1020D00009FE01218803FEF705FE18208DF8170080
:1020E0004FF40070ADF8140003208DF8160005A918
:1020F0006B48FEF73BFB04208DF817000002ADF89B
:10210000140003208DF8160005A96548FEF72EFB84
:1021100001940020ADF810000C20ADF80E00002056
:10212000ADF80C00ADF80A00ADF8080001A95D4853
:10213000FEF77FFE01215B48FEF707FF012240F218
:1021400025515848FEF70DFF25208DF8000001208D
:102150008DF8030000208DF8010002208DF80200A8
:102160006846FEF73AFA06B010BD10B586B00446D0
:1021700001210420FEF7B6FD01214804FEF7BFFD52
:1021800018208DF817000420ADF8140003208DF8F6
:10219000160005A94248FEF7E9FA04208DF8170059
:1021A0000820ADF8140003208DF8160005A93C485E
:1021B000FEF7DCFA01940020ADF810000C20ADF819
:1021C0000E000020ADF80C00ADF80A00ADF80800D4
:1021D00001A93548FEF72DFE01213348FEF7B5FE73
:1021E000012240F225513048FEF7BBFE26208DF833
:1021F000000001208DF8030000208DF801008DF80B
:1022000002006846FEF7E9F906B010BD2DE9F0417D
:1022100007460C46154600260DE014F8011B38460B
:10222000FEF700FF00BF40213846FEF769FF002897
:10223000F9D0701C86B2AE42EFDBBDE8F0810FB47E
:1022400030B5CBB0054601AC50A800904FF4947166
:1022500001A8009B4F9A06F027F8002000900BE0A1
:1022600014F8011B2846FEF7DDFE00BF402128467A
:10227000FEF746FF0028F9D020780028F0D14BB0B7
:1022800030BC5DF814FB10B540F225510548FEF74F
:102290004DFF18B120210348FEF73FFF10BD00009D
:1022A00000080140003801400044004010B50446D9
:1022B00084F001024FF400510D48FEF708FB0D4871
:1022C000047010BD08B501211020FEF70BFD102091
:1022D0008DF803004002ADF8000003208DF80200E5
:1022E00069460348FEF742FA0020FFF7DFFF08BD0A
:1022F000001001402C00002010B56648006820F056
:102300000F00644908600846006840F00300086058
:10231000002201215F48FEF7DAFA1420FFF78EFE53
:10232000012211465B48FEF7D2FA1E20FFF768FE35
:1023300010BD10B500245748006820F00F00554923
:1023400008600846006840F00800086004E0601C6F
:10235000C4B20120FFF754FE01214E48FEF799FA5E
:1023600008B1642CF3DB642C01DB012010BD0024D8
:1023700004E0601CC4B20120FFF742FE0121454881
:10238000FEF787FA08B9642CF3DB642C01DB01202B
:10239000ECE70020EAE710B5002404E0601CC4B2BA
:1023A0000120FFF72DFE01213A48FEF772FA08B12D
:1023B000642CF3DB002404E0601CC4B20120FFF7AE
:1023C0001FFE01213348FEF764FA08B9642CF3DBE1
:1023D0002820FFF715FE01212E48FEF75AFA08B112
:1023E000012010BD0020FCE770B50024002506E0A8
:1023F0006006040EFFF7CFFF0443681CC5B2082D2A
:10240000F6DB204670BD7CB505460E46FFF774FF2F
:10241000FFF78FFFF8B9002405E0FFF7E5FF0DF89F
:102420000400601CC4B2052CF7DB9DF800009DF889
:10243000011008449DF8021008449DF80310084458
:102440009DF80410884208D19DF8000030709DF876
:102450000200287001E001207CBD0020FCE708B5E7
:1024600001210420FEF73EFC0120ADF80000102001
:102470008DF8030003208DF8020069460548FEF739
:1024800075F901210348FEF71EFAFFF735FFFFF744
:1024900050FF08BD000801401FB501210220FEF7D2
:1024A0002EFC1A48FFF7EAFA0020ADF80A00ADF852
:1024B00006000920ADF808004720ADF80400002010
:1024C0008DF80C0001A91148FEF748FF01210F48C3
:1024D000FFF766FD012211460C48FFF7B6FA4FF4EC
:1024E000A060FEF775F81D208DF8000001208DF822
:1024F000030002208DF801008DF802006846FEF707
:102500006CF801210148FFF785FA1FBD0004004067
:1025100008B501210820FEF7E5FB10208DF8030027
:102520002020ADF8000003208DF8020069466A48BB
:10253000FEF71CF928208DF803004020ADF80000BC
:1025400069466548FEF712F9002220216248FEF72D
:10255000BEF90F20FFF754FD08BD2DE9F0410446F8
:102560000025012220215C48FEF7B1F90F20FFF77A
:1025700047FD002220215848FEF7A9F900BF40215D
:102580005548FEF786F90028F9D00021534A11601A
:10259000516000BF40215048FEF77BF90128F9D077
:1025A0004E48D0E900104E4AC2E9001064220023D0
:1025B0004B4903C905F0F4FD263871F1000114D22E
:1025C00047484FF4AD7306C80020A1FB036802FB27
:1025D000038201FB002102220346304605F0E0FDA4
:1025E00005466420B5FBF0F020802088BDE8F0812E
:1025F0002DE9F0470025A846012220213648FEF7A4
:1026000066F90F20FFF7FCFC002220213248FEF77C
:102610005EF900BF40213048FEF73BF90028F9D0B1
:1026200000202E4A1060506000BF40212A48FEF76B
:1026300030F90128F9D02948D0E90010284AC2E928
:10264000001064220023264903C905F0A9FD26389D
:1026500071F100011BD222484FF4AD710CC800206B
:10266000A2FB016903FB019102FB00110222034658
:10267000304605F095FD04466420B4FBF0F54FF4B8
:102680007A70B5FBF0F6304609F04CFD80464046C6
:10269000BDE8F08710B501211248FFF784FC01283E
:1026A0000CD10E48D0E90020521C40F100000B492B
:1026B000C1E9002001210B48FFF786FC10BD01464F
:1026C000012005E00A2291FBF2F291B2421C90B285
:1026D0000929F7DC70470000000C014030000020A1
:1026E000380000200004004000B589B001210846F0
:1026F000FEF705FB0121C802FEF7F4FA01210420D0
:10270000FEF7F0FA18208DF823000220ADF8200023
:1027100003208DF8220008A93948FEF727F8182071
:102720008DF81F004FF40060ADF81C0003208DF8F9
:102730001E0007A93248FEF719F84FF08040FFF756
:102740009DF90020ADF81600ADF812006320ADF839
:10275000140040F2CF20ADF8100000208DF81800D2
:1027600004A94FF08040FEF7F9FD04A92548FEF7C3
:10277000F5FD6846FFF727F96020ADF8000000205E
:10278000ADF808000120ADF802000020ADF8060009
:1027900069464FF08040FEF760FE69461948FEF733
:1027A000F4FE01218807FFF735F901211548FFF7ED
:1027B00031F901211348FFF739F909B000BD10B50F
:1027C0000446012C03D132210E48FFF7C1FB1CB98E
:1027D00000210C48FFF7BCFB0B48047010BD10B57E
:1027E0000446012C03D146218007FFF7ADFB24B935
:1027F00000214FF08040FFF7A7FB0448047010BD94
:1028000000080140002C0140400000204100002051
:1028100008B501210820FEF765FA48208DF803006D
:102820004FF40050ADF8000003208DF80200694617
:102830000548FDF79BFF08BD10B54FF40051024855
:10284000FEF727F810BD0000000C014010B504464B
:10285000224608211148FEF73AF81148047010BDCD
:1028600008B501210820FEF73DFA01210846FEF7D0
:1028700039FA01210B48FEF74AF810208DF80300C1
:102880000820ADF8000003208DF8020069460348D7
:10289000FDF76CFF0020FFF7D9FF08BD000C0140D9
:1028A000420000200002300030B50C46012213E047
:1028B00050F82230114605E04D1E50F8255040F8E2
:1028C0002150491E002904DD4D1E50F825509D421F
:1028D000F2DC40F82130521CA242E9DB30BDF0B5F9
:1028E00003461546012217E051F82240104605E044
:1028F000461E51F8266041F82060401E002808DD81
:1029000053F82470461E51F8266053F82660B742EB
:10291000EEDC41F82040521CAA42E5DBF0BD2DE977
:10292000F04F05460C469246984629465046226886
:10293000FFF7D5FF4FF0FF3621E0D4F800B0701C50
:102940002060771C18E055F82710701C10B94FF064
:10295000FF3001E055F82600A1EB0009C14503DC7A
:10296000C8F10000814506DA55F827102268501C8E
:10297000206045F822107F1C5F45E4DB761C206850
:10298000B042DADC28462168FFF78EFFBDE8F08F01
:10299000F0B505461C46059E012000270F6030E07B
:1029A00052F82070B7422BDD52F820C0471E52F873
:1029B0002770BC4524DD012300E05B1CC718A7423B
:1029C00007DA52F8207000EB030C52F82CC0674570
:1029D000F3D052F8207000EB030C52F82CC067457E
:1029E0000CDD0F680F2F09DAD1F800C00CF10107D8
:1029F0000F6045F82C005F1C384402E0184400E0EA
:102A0000401C671E8742CBDCF0BD2DE9F847054628
:102A10000C4616461F46DDE90A9ADDF824803B463F
:102A2000324621462846CDF80080FFF7B1FF4B46DD
:102A3000324621462846FFF772FF2068504501DAEA
:102A4000206800E050462060BDE8F8872DE9FF4F80
:102A5000C6B08846994600204590002406E0469876
:102A600050F82410459808444590641C4445F6DB12
:102A70004598B0FBF8F04590002408E0469850F8DF
:102A800024104598081AFE4941F82400641C444566
:102A9000F4DB002417E0FA4850F824100246601CCA
:102AA00052F820000144A01C52F820000144E01C10
:102AB00052F820000F183846F91707EB917189106A
:102AC00042F82410641CB4F5F87FE4DB00240AE02B
:102AD000EB49601C51F8200051F82410401AE949D4
:102AE00041F82400641CB4F5F77FF1DD00240EE00A
:102AF000E44951F824200B46611C53F8211050186A
:102B000000EBD07149101A4642F82410641CB4F549
:102B1000F77FEDDB00251BE0002043902C460BE007
:102B2000D84850F82410601BD74A32F81020439838
:102B300001FB12004390641C681D8442F0DB40F2EC
:102B40007A41439890FBF1F0CE4941F825006D1C85
:102B5000B5F5F47FE0DD00204190002410E0C94885
:102B600050F82400002803DDC64850F8240003E094
:102B7000C44850F824004042419908444190641CE4
:102B8000B4F5F77FEBDD40F2EF11419890FBF1F0E7
:102B9000419005210822419840F2EF13CDE901212F
:102BA0000090B84A40A912A8FFF72FFF002011900B
:102BB0004098022821DB01240BE012A850F82410D1
:102BC000601E12AA52F82000091A119808441190A8
:102BD000641C40988442F0DB4098401E119991FBA0
:102BE000F0F0119041F27071119891FBF0F154984E
:102BF000016001215598017005E0A44954980160D5
:102C0000002155980170002407E012A850F8240014
:102C1000801C30A941F82400641C40988442F4DBF5
:102C200000240CE0469850F82400954941F824000F
:102C3000489850F82400964941F82400641C444503
:102C4000F0DB0020429000242DE00120449030A8C9
:102C500050F824A04FF080703F900AF10500B0F5C5
:102C6000F77F1FDC0A3800281CDD054611E0844888
:102C700050F825103F9881420ADA449808B10020A4
:102C800044907F4850F825003F9021A840F82450F8
:102C90006D1C0AF105008542E9DB449810B94298A1
:102CA000401C4290641C40988442CEDB429802282B
:102CB00008DA7648C9F800000021539801704AB03C
:102CC000BDE8F08F00242EE06D4951F824200B461A
:102CD000611C53F821100A44A11C53F821100A4426
:102CE000E11C53F821105018C11700EB91718910A5
:102CF0001A4642F82410664951F824200B46611CFC
:102D000053F821100A44A11C53F821100A44E11C75
:102D100053F821105018C11700EB917189101A4611
:102D200042F82410641CB4F5F87FCDDB0020049039
:102D30000026002404E0002005A941F82400641CBA
:102D4000052CF8DB00240DE021A850F82400B0F594
:102D5000FA7F06DD4D48C9F8000000215398017044
:102D6000ADE7641C42988442EEDB0024AFE04FF0F4
:102D70007F400D900C9021A9601C51F8200051F863
:102D80002410401A0A2879DD21A850F8245016E0B2
:102D90003B4850F825100C98814204DD384850F823
:102DA00025000C900A953A4850F825100D9881425C
:102DB00004DD374850F825000D900B956D1C21A9B6
:102DC000601C51F82000A842E2DC601C51F8200091
:102DD0002F4951F8200021A951F824102C4A52F80B
:102DE0002110401A21A951F824200B99891A48432F
:102DF000109021A9601C51F8200051F82410411AAC
:102E0000109890FBF1F021A951F82410204A52F8B3
:102E100021100844109011460B9851F8201010987A
:102E2000081A109021A9601C51F82000144951F88B
:102E3000200021A951F82410114A52F82110401AFB
:102E400021A951F824200A99891A48430F9021A9F1
:102E5000601C51F8200051F82410411A0F9890FB83
:102E6000F1F021A951F82410054A52F82110084424
:102E70000F9011460B9851F820100BE026E000004F
:102E8000F40C002034050020DCC3000819FCFFFF0F
:102E9000C41400200F98081A0F900C9910984843FA
:102EA000C01103900D990F984843C711002F0DDDF5
:102EB000052E0BDA039848B1039800EB80008000E0
:102EC00090FBF7F005A941F82600761C641C429897
:102ED000401EA0423FF74BAF314605A8FFF7E4FC88
:102EE000304606EBD0714FEA610BBBF1010F0CDDF0
:102EF000ABF1010105AA52F8211052F82B208818D5
:102F000000EBD0714910049103E005A850F82B00A4
:102F10000490049802280DDD0498B8280ADA0949BB
:102F20000498085C0E900E98C9F80000012153988F
:102F3000017005E00448C9F80000002153980170B1
:102F400000BFBCE61AC4000819FCFFFF70B50546B7
:102F50000C4600F021FBAE2000F0A3FB00F04BFB81
:102F600000B111E0284600F09CFB00F044FB00B1EA
:102F70000AE0204600F095FB00F03DFB00B103E0C5
:102F800000F021FB012070BD00F01DFB0020FAE7DE
:102F900070B5044600F000FBAE2000F082FB00F0AC
:102FA0002AFB00B119E0204600F07BFB00F023FB78
:102FB00000B112E000F0F0FAAF2000F072FB00F078
:102FC0001AFB00B109E0002000F090FB054600F07C
:102FD0004EFB00F0F8FA284670BD00F0F4FA00202D
:102FE000FAE72DE9F04782460C46174600253E4693
:102FF00000F0D2FAAE2000F054FB00F0FCFA00B171
:103000003FE0504600F04DFB00F0F5FA00B138E02B
:1030100000F0C2FAAF2000F044FB00F0ECFA00B17F
:103020002FE029E0002000F061FB804600F005FB66
:10303000002000F05BFB814600F0FFFA49EA08201F
:1030400024F82500002000F051FB804600F0F5FA3E
:10305000002000F04BFB8146012E02D100F007FB5F
:1030600001E000F0EAFA49EA082004EB8501488013
:10307000701EC6B2681CC5B2002ED3D100F0A3FAF0
:1030800000BF00F0A0FABDE8F08770B505460C4619
:103090000020FFF77DFF0120FFF77AFF00F07CFAA8
:1030A000AE2000F0FEFA00F0A6FA00B12AE02846B1
:1030B00000F0F7FA00F09FFA00B123E000F06CFA9C
:1030C000AF2000F0EEFA00F096FA00B11AE001200D
:1030D00000F00CFB2070012000F008FB6070012064
:1030E00000F004FBA070012000F000FBE070012064
:1030F00000F0FCFA2071002000F0F8FA607100F096
:1031000062FA00BF00F05FFA70BD10B540210920DF
:10311000FFF71CFF40210920FFF718FF10BDF0B595
:1031200085B000F0DFF9FFF7F0FFC0210220FFF7C4
:103130000DFF00210320FFF709FF00210420FFF706
:1031400005FF00210520FFF701FF00210620FFF702
:10315000FDFE0F210820FFF7F9FE03210920FFF7EC
:10316000F5FE27210A20FFF7F1FE24210C20FFF7AE
:10317000EDFE24210D20FFF7E9FE7F211020FFF74F
:10318000E5FECD4E00274FF4FA70CC4908600024CC
:1031900035E000BFCA4800680128FBD003A907201A
:1031A000FFF773FF9DF80C008007800B9DF80D1052
:1031B00040EA01209DF80E100843C24941F824005E
:1031C0009DF80F008007800B9DF8101040EA012049
:1031D0009DF811100843BC4941F82400B94850F843
:1031E0002400B04202D2B74850F82460B54850F8E5
:1031F0002400B84202D9B34850F82470641CAF4888
:1032000000688442C5DBAF4850F8245000BFAF4887
:10321000AF49B04AB04BCDE900210290A94AA74876
:103220000168A948FFF712FC05B0F0BD70B504466F
:103230000D462A462146AE2000F0EDFA70BD70B56D
:1032400004460D462A462146AE2000F0C5FA70BD60
:10325000FEB506460C4600203060206002A9FFF74C
:10326000EEFF02A90120FFF7EAFF06236A460721C5
:10327000AE2000F082FA9DF800502D0430682844FA
:1032800030609DF801502D023068284430609DF870
:1032900002503068284430609DF803502D042068A7
:1032A000284420609DF804502D02206828442060A6
:1032B0009DF805502068284420603068C0F3110054
:1032C00030602068C0F311002060FEBD2DE9F04F92
:1032D00085B081468A46E9E00024774FA046642401
:1032E00020E0784850F82410A4F16400754A42F8B0
:1032F0002010754850F82410A4F16400724A42F876
:103300002010704850F82400B84202D26D4850F89E
:1033100024706C4850F82400404502D9694850F8A0
:103320002480641CB4F5FA7FDBDB4FF4C8748BE0B7
:10333000601E644951F8205000BF614800680128B0
:10334000FBD003A90720FFF7A0FE9DF80C00800723
:10335000800B9DF80D1040EA01209DF80E100843E7
:10336000584941F824009DF80F008007800B9DF814
:10337000101040EA01209DF811100843524941F80D
:103380002400504850F82400A8421DD94D4951F856
:103390002410481B08F0C6FE8346A8EB070008F07F
:1033A000C1FE01460290584608F0DEFD83464B49B7
:1033B000584608F0CBFE8346584608F097FE361A6A
:1033C000002E1EDA00261CE03E4951F82410681A2F
:1033D00008F0A8FE8346A8EB070008F0A3FE01460C
:1033E0000290584608F0C0FD83463C49584608F014
:1033F000ADFE8346584608F079FE0644FF2E00DDF8
:10340000FF2632480078012810D132480078012880
:103410000CD12F480068782808DA2F480068652802
:1034200004DA2B4800682E49086004E0002028498F
:1034300008602B4908602548007820B900202449FD
:10344000086027490860641CB4F5FA7FFFF670AF86
:103450001E481F491F4A204BCDE900210290194AFE
:10346000164801681848FFF7F1FA18480078012853
:103470001CD118480078012818D115480068322856
:1034800014DD13480068782810DA134800686528AE
:103490000CDA11480068502808DD0D480068C9F8AA
:1034A00000000D480068CAF8000000E014E700BF03
:1034B00005B0BDE8F08F0000FFFF030044000020CE
:1034C0002481214264240020941C00205400002008
:1034D000500000204C0000204800002000007F43E6
:1034E0005800002008B501210820FDF7FBFB4FF430
:1034F0008060ADF8000010208DF8030003208DF8E7
:1035000002006946D148FDF731F94FF48061CF4898
:10351000FDF7D9F901210820FDF7E4FB4FF4006025
:10352000ADF8000010208DF8030003208DF8020094
:103530006946C648FDF71AF94FF40061C348FDF724
:10354000C2F908BD08B501210820FDF7CBFB4FF4F7
:103550000060ADF8000048208DF803006946BB48C4
:10356000FDF704F908BD08B501210820FDF7BAFBF5
:103570004FF40060ADF8000010208DF80300032028
:103580008DF802006946B148FDF7F0F84FF400618C
:10359000AE48FDF798F908BD10B5FFF7E4FF01202C
:1035A000AB490860AB49C1F8A8010420FEF728FD2B
:1035B0000020A74908600420FEF722FD0020A5494D
:1035C000C1F8A80110BD10B5FFF7CDFF0020A0493C
:1035D000091F08609F49C1F8AC010420FEF710FDE7
:1035E00001209B49091F08609A49C1F8AC010420D9
:1035F000FEF706FD10BD10B50024FFF7A3FF012064
:1036000093490860FEF7FCFC01209249C1F8A8012B
:10361000FEF7F6FC07E0601CC4B2FA2C03DDFFF7EE
:10362000D2FF012010BD8A48803800680028F2D1FE
:103630008749091F086000BFF4E710B500208449DE
:10364000091F0860FFF78FFF00208249C1F8AC0115
:103650000220FEF7D5FC01207D49091F08600220E9
:10366000FEF7CEFC00207B49C1F8A80110BD10B5C3
:1036700000207749091F0860FFF775FF0120754991
:10368000C1F8AC010220FEF7BBFC01207049091F04
:1036900008600220FEF7B4FC00206E49C1F8A801C2
:1036A00010BD70B50446FFF75EFF00206849091F92
:1036B0000860002517E0E009654908606006040E0F
:1036C0000220FEF79DFC01206249C1F8A8010220FA
:1036D000FEF796FC00205E49091F08600220FEF7F5
:1036E0008FFC681CC5B2082DE5DB70BD70B50546C2
:1036F0000024FFF727FF002617E000205449091F88
:1037000008600220FEF77CFC01205249C1F8A801A4
:103710006006040E4E488038006808B1601CC4B2D0
:103720000120FEF76DFC701CC6B2082EE5DB15B952
:10373000FFF79DFF01E0FFF780FF204670BD2DE9F8
:10374000F04107460D461646FFF726FF3846FFF7BD
:10375000A8FFFFF750FF002406E0285DFFF7A1FF58
:10376000FFF749FF601CC4B2B442F6DBFFF72BFF42
:103770000A20FEF784FCBDE8F0812DE9F041074600
:10378000884614461D46FFF707FF3846FFF789FFB6
:10379000FFF731FF4046FFF784FFFFF72CFF47F0AC
:1037A0000100FFF77EFFFFF726FF002605E001205E
:1037B000FFF79CFFA055701CC6B2681EB042F6DC35
:1037C0000020FFF793FF691E6054FFF7FCFE0A20FC
:1037D000FEF755FCBDE8F08170B504460D4616466F
:1037E000FFF7DAFE2046FFF75CFFFFF704FF2846ED
:1037F000FFF757FFFFF7FFFEFFF7CEFE44F0010093
:10380000FFF74FFFFFF7F7FE0020FFF76FFF307065
:10381000FFF7D9FE70BD70B506460C461546FFF79A
:10382000BBFE3046FFF73DFFFFF7E5FE2046FFF702
:1038300038FFFFF7E0FE2846FFF733FFFFF7DBFE18
:10384000FFF7C1FE0A20FEF71AFC70BD000C014014
:10385000AC8121420080214208B5BF480278BFA157
:10386000684604F03BFD10236A460021322004F034
:1038700001FBBB480278B9A1684604F02FFD102374
:103880006A460221322004F0F5FA08BD10B504F0B2
:1038900017FA01220021084604F009FB0222002148
:1038A000122004F004FB00221146242004F0FFFA49
:1038B00003220021482004F0FAFA04220221002009
:1038C00004F0F5FA05220221122004F0F0FA002299
:1038D0000221242004F0EBFA1023A2A202214820A6
:1038E00004F0C8FA1023A0A20421002004F0C2FAB8
:1038F00000220421242004F0DAFA10239CA20421DF
:10390000522004F0B7FA10239AA20621002004F0F6
:10391000B1FA00220621242004F0C9FA102391A252
:103920000621522004F0A6FA10BD10B5FEF750FB98
:103930004FF4E130FEF7C6FB4FF4E130FEF715FC23
:10394000FEF7C0FC04F026FBFEF7A6FDFEF7E0FD47
:10395000FEF7CAFEFEF784FFFEF75AFFFFF7DFFB14
:1039600009E0102385A20021084604F083FA4FF4F1
:103970007A70FEF784FBFEF772FD0028F1D1102368
:1039800081A20021084604F075FA4FF47A70FEF720
:1039900076FB04F095F910BD1FB50020039002904E
:1039A00081460024FFF7C1FF02F082FA08237BA2C0
:1039B0000021084604F05EFA03E04FF4FA70FEF7C7
:1039C0003DFB7CA17DA002F014FA0028F5D187A16F
:1039D0008E48FEF734FC08238DA20421002004F059
:1039E00049FA4FF4FA70FEF729FB04F069F9102345
:1039F0008EA20021084604F03DFA07E06DA16FA0F9
:103A000002F0F7F94FF4FA70FEF718FB00F091FAA4
:103A10000028F3D100F084FDFFF738FF9AE0FFF7AC
:103A20001BFFFEF709FF012802D1FEF73FFC02E071
:103A30000020FEF73BFC48480078212803DB0120EA
:103A4000FEF704FF02E00020FEF700FF09F101008D
:103A500080B28146642872DB41493F48FEF7D3FCBF
:103A60007648FEF77AFD02A903A8FFF72FFC03981A
:103A7000642820DA0621042004F015FB10233AA262
:103A80000421002004F0F6F900220421242004F08F
:103A90000EFA102336A20421522004F0EBF92FA1D4
:103AA0006846039A04F01AFC10236A460421322067
:103AB00004F0E0F91FE00621042004F0F4FA1023DA
:103AC00029A20421002004F0D5F900220421242099
:103AD00004F0EDF9102326A20421522004F0CAF9C3
:103AE0001EA101A8039A04F0F9FB102301AA0421E6
:103AF000322004F0BFF9029807F0A7FE0746504AAB
:103B0000504B07F0F3FF02D24D484E4902E00298B5
:103B100007F09BFE054607F069FE02900FA168467C
:103B2000029A04F0DBFB10236A460621322004F0DF
:103B3000A1F900F087FC4FF0000902F03BF90020EA
:103B400002F094F9044614B1204600F014FD0A2056
:103B5000FEF795FA63E700005C0000202532640060
:103B60005D0000202500000068656172740000009F
:103B700062706D0053704F320000000044485431B1
:103B800031204572726F72002048617264776172F1
:103B90006520696E6974204F4B000000436F6E6EA4
:103BA000656374204D515454732053657276657269
:103BB0002E2E2E00434F4E4E4543540041542B436E
:103BC000495053544152543D22544350222C226DAB
:103BD000717474732E6865636C6F7564732E636F94
:103BE0006D222C313838330D0A000000436F6E6EA1
:103BF000656374204D51545420536572766572206C
:103C0000537563636573730D0A000000003801404B
:103C1000436F6E6E656374204D515454205365722A
:103C200076657220537563636573730044657669C6
:103C30006365206C6F67696E2E2E2E005E0000207B
:103C40008FC2F5285CFF5840F0B58BB005460026C2
:103C50000024284604F094FEC7B20DB11C2F02DAEE
:103C600001200BB0F0BD06E0A85D01A98855002039
:103C7000A855701CC6B2BE42F6DB002001A98855CB
:103C80000026002455E001A8805D2B2810D008DC18
:103C9000202814D023282ED0252825D026283FD10F
:103CA00030E02F2812D03D2833D03F2838D114E0FF
:103CB0002819FCA104F0CEFEE01CC4B236E028199D
:103CC000F9A104F0C7FEE01CC4B22FE02819F7A147
:103CD00004F0C0FEE01CC4B228E02819F4A104F0EE
:103CE000B9FEE01CC4B221E02819F2A104F0B2FE32
:103CF000E01CC4B21AE02819EFA104F0ABFEE01CEE
:103D0000C4B213E02819EDA104F0A4FEE01CC4B273
:103D10000CE02819EAA104F09DFEE01CC4B205E005
:103D200001A8805D2855601CC4B200BF00BF701C94
:103D3000C6B2BE42A7DB0020285500BF91E72DE99F
:103D4000F04FC9B005460C4616461F460DF5A4783F
:103D500098E8000F0020489055B14CB1D9488642F0
:103D600006D32FB1B9F1000F02D0BAF1780F03DA00
:103D7000012049B0BDE8F08F402118A804F00FFFE2
:103D8000384604F0FDFD05903B4648AA40210090CE
:103D900018A801F053F8482106A804F000FFBBF171
:103DA000000F09D0C8A03346C9A248218DE83100D0
:103DB00006A804F0A9FA09E0C3A03346CAA2482124
:103DC0008DE81101039506A804F09EFA402128A869
:103DD00004F0E5FE06A804F0D3FD059018A804F051
:103DE000CFFD049028A8009006AA18A8DDE90413C6
:103DF00000F0DEFE00204890402138A804F0CFFEFD
:103E000028A804F0BDFD059028AB48AA40210090E9
:103E100038A800F073FF38A8FFF716FFBBF1000FBA
:103E20000CD038A8A8A12B46B7A2CDE90046CDE911
:103E300002105146484604F067FA0CE038A8A2A1E7
:103E40002B46BF4ACDE901860094CDE903105146C7
:103E5000484604F059FA00208BE72DE9F041ACB058
:103E6000012710250026002405F1F00004F042F996
:103E700006461EB938462CB0BDE8F08103E04FF489
:103E8000FA70FEF7DBF8AFA1B0A001F0B2FF002896
:103E9000F5D10120902108AA0023CDE90032CDE917
:103EA0000210B4A3BF4AC0A1C2A0FFF748FFC4A13B
:103EB0001020CDE9000105F1F00108ABC24A3046FF
:103EC00004F022FA304604F05BFD1FFA80F8414608
:103ED000304601F0B4FFFA2001F0C8FF044624B1D7
:103EE000BAA1204604F016FD0446CCB10020039090
:103EF000B94803A904ABB94ACDE90010B849204636
:103F000004F0B8FB04280AD1B348039904ABB34AC0
:103F1000CDE90010B3A1BB48FEF791F9002700BF1F
:103F2000304604F016F9B8A1B8A001F062FF384697
:103F3000A1E730B5B3B000202F903090319032908F
:103F40000125A02107AA9EA3CDE90032CDE90210E8
:103F500088A3944A94A197A0FFF7F1FE07A892A323
:103F600097A2AEA10090A748FEF769F92FA80021FB
:103F700002910391CDE90410084601210B0290A2A1
:103F8000CDE9001007A988A001F0B9F8002842D1B6
:103F9000309A91B22F9801F052FFFA2001F066FF9B
:103FA0000446002C33D0204601F074F802282ED1AC
:103FB000204601F009FA062823D2DFE800F00309C1
:103FC0000E13181DA1A18F48FEF739F900251DE039
:103FD000A3A18C48FEF733F918E0A8A18948FEF7A1
:103FE0002EF913E0AEA18748FEF729F90EE0B4A13F
:103FF0008448FEF724F909E0BAA18248FEF71FF9C8
:1040000004E0C3A17F48FEF71AF900BF00BF2FA844
:1040100000F0F8FF03E0C5A17A48FEF710F9284642
:1040200033B030BD10B58CB004463021684604F082
:10403000B6FDC7A1204604F07FFC3021684604F09D
:10404000AEFDC9480278C9A1684604F047F969463F
:10405000204604F0FFFC3021684604F0A0FDC9486A
:104060000278C9A1684604F039F96946204604F08F
:10407000F1FC3021684604F092FDC9480288C9A1CC
:10408000684604F02BF96946204604F0E3FC302131
:10409000684604F084FDCA48007808B1C9A096E1DA
:1040A00094E10000253242002532300025324600DE
:1040B00025334600253235002532330025323600BF
:1040C000253344009554415D736861310000000060
:1040D00025640A25730A70726F64756374732F25E3
:1040E000730A25730000000025640A25730A7072A4
:1040F0006F64756374732F25732F646576696365C8
:10410000732F25730A25730076657273696F6E3D90
:104110002573267265733D70726F647563747325C1
:1041200025324625732665743D2564266D657468C1
:104130006F643D2573267369676E3D25730000002B
:1041400090CF0008434F4E4E4543540041542B43FB
:10415000495053544152543D22544350222C223151
:1041600038332E3233302E34302E3333222C383045
:104170000D0A000059334E55545773775356453343
:10418000646E686D4F576F3254464A4A5A484E55CE
:1041900065473079627A4E4656304E4B6245343D23
:1041A0000000000000CF9D746C56303971517A5078
:1041B00042370000323031382D31302D333100009C
:1041C0005A686F7534000000D8CF000864657669BE
:1041D00063655F6964000000442C0020342C0020DB
:1041E00044CF000863726561746520646576696315
:1041F000653A2025732C2025732C2025642C20253E
:10420000730D0A00003801404F4B000041542B430E
:104210004950434C4F53450D0A0000004F6E654E08
:1042200045545F4465764C696E6B0D0A4E414D45B1
:104230003A2025732C0950524F49443A2025732CBB
:10424000094B45593A25730D0A00000054697073F3
:104250003A09C1ACBDD3B3C9B9A60D0A000000002C
:104260005741524E3A09C1ACBDD3CAA7B0DCA3BA7C
:10427000D0ADD2E9B4EDCEF30D0A00005741524E55
:104280003A09C1ACBDD3CAA7B0DCA3BAB7C7B7A8B7
:10429000B5C4636C69656E7469640D0A0000000042
:1042A0005741524E3A09C1ACBDD3CAA7B0DCA3BA3C
:1042B000B7FECEF1C6F7CAA7B0DC0D0A00000000B9
:1042C0005741524E3A09C1ACBDD3CAA7B0DCA3BA1C
:1042D000D3C3BBA7C3FBBBF2C3DCC2EBB4EDCEF3CD
:1042E0000D0A00005741524E3A09C1ACBDD3CAA7CE
:1042F000B0DCA3BAB7C7B7A8C1B4BDD328B1C8C88A
:10430000E7746F6B656EB7C7B7A8290D0A00000088
:104310004552523A09C1ACBDD3CAA7B0DCA3BACE4C
:10432000B4D6AAB4EDCEF30D0A0000005741524EA8
:104330003A094D5154545F5061636B6574436F6E1D
:104340006E656374204661696C65640D0A00000047
:104350007B226964223A2231323322202C2270617E
:1043600072616D73223A7B005C0000202274656DDF
:1043700070223A7B2276616C7565223A25647D2C29
:10438000000000005D0000202268756D69223A7B04
:104390002276616C7565223A25647D2C0000000050
:1043A0005E0000202244697374616E63655F6D6D09
:1043B000223A7B2276616C7565223A25647D2C0059
:1043C000400000207472756500000000BBA002462A
:1043D000BCA1684603F082FF6946204604F03AFB20
:1043E0003021684604F0DBFBBC48007810B1AFF226
:1043F0002C0000E0B1A00246B9A1684603F06EFFB0
:104400006946204604F026FB3021684604F0C7FBCD
:10441000B948007810B1AFF2540000E0A7A00246FE
:10442000B6A1684603F05AFF6946204604F012FB25
:10443000B7A1204604F00EFB204604F0A1FAC0B25A
:104440000CB010BD30B5C5B00020419042904390F3
:10445000449000240025AFA1B648FDF7F0FE4FF4CC
:10446000807101A804F09BFB01A8FFF7DBFD044667
:10447000002C28D041A800232246AFF2BC21009096
:10448000AFF2DC2001F091F8C8B908E001A8415D65
:10449000429A501C429041988154681C05B2A54232
:1044A000F4DB429A91B2419801F0C9FCA2A1A14863
:1044B000429AFDF7C4FE41A800F0A4FD03E0A2A1CA
:1044C0009C48FDF7BCFE45B030BD70B588B00546D0
:1044D0000C460020049005900690079023462A463B
:1044E000A1A19448FDF7ABFE204604F049FA064628
:1044F00004A80121002200923346CDE90121039056
:10450000224629460A2000F06EFF38B9059A91B27A
:10451000049801F094FC04A800F074FD08B070BD8C
:1045200000B595B00020119012901390149003A83C
:104530000290AFF27430AFF2903393A23821009022
:1045400003A803F0E1FE03AA97A17A48FDF777FEDE
:1045500011A8012302AA00210090142001F02FF9D4
:1045600038B9129A91B2119801F069FC11A800F0C3
:1045700049FD15B000BD2DE9F04F8BB081460020FC
:104580000A90099008900790069000258046824680
:104590000590484600F07EFD0546032D04D0042D0D
:1045A0005BD0092D71D161E0854806A907AA0AAB45
:1045B000CDE90021029008AA09A9484601F037FA7E
:1045C0008046B8F1000F47D14FF0000BBDF81C003A
:1045D0000A99CDE90010BDF820307AA15548099A12
:1045E000FDF72DFE0A9802F09DFB049084A104982B
:1045F00002F09EFF039084A1039802F099FF064603
:1046000082A1039802F094FF074682A1039802F06A
:104610008FFF044646B1F068012802D1FDF746FE3F
:1046200002E00020FDF742FE47B1F868012802D100
:10463000FEF7C5F802E00020FEF7C1F844B1E068DB
:10464000012802D1FEF7CBF802E00020FEF7C7F800
:10465000049801F065FD00BF00BF484601F0E7FA8D
:1046600018B96EA13348FDF7EAFD11E0484601F0A4
:1046700025F920B971A12F48FDF7E1FD03E076A1EE
:104680002C48FDF7DCFD03E0FFE74FF0FF3800BFEB
:1046900000BF01F08FFB08F1010010B90BB0BDE8BD
:1046A000F08F0F2D01D0032D05D1099803F051FD96
:1046B0000A9803F04EFD00BFF0E7000066616C73DE
:1046C0006500000022594C4544223A7B2276616CF9
:1046D0007565223A25737D2C000000004100002002
:1046E00022574C4544223A7B2276616C7565223A0A
:1046F00025737D2C000000002C000020224C454436
:10470000223A7B2276616C7565223A25737D000022
:104710007D7D0000546970733A094F6E654E657473
:104720005F53656E64446174612D4D5154540D0A9C
:10473000000000000038014053656E6420256420AD
:1047400042797465730D0A005741524E3A09454447
:10475000505F4E6577427566666572204661696C8A
:1047600065640D0A000000005075626C6973682072
:10477000546F7069633A2025732C204D73673A207B
:1047800025730D0A00000000247379732F25732F01
:1047900025732F7468696E672F70726F70657274FD
:1047A000792F7365740000005375627363726962D8
:1047B0006520546F7069633A2025730D0A0000006C
:1047C00060000020746F7069633A2025732C207498
:1047D0006F7069635F6C656E3A2025642C20706190
:1047E000796C6F61643A2025732C207061796C6F4D
:1047F00061645F6C656E3A2025640D0A000000005C
:10480000706172616D7300004C454400594C454421
:1048100000000000574C45440000000054697073CC
:104820003A094D515454205075626C697368205395
:10483000656E64204F4B0D0A0000000054697073D0
:104840003A094D515454205375627363726962651D
:10485000204F4B0D0A000000546970733A094D5106
:104860005454205375627363726962652045727295
:104870000D0A0000F0B50446142C06DA01EA020520
:1048800023EA010685EA060019E0282C04DA81EA09
:10489000020787EA030012E03C2C0ADA01EA02056B
:1048A00001EA030787EA050602EA030787EA06002A
:1048B00005E0502C03DA81EA020787EA0300F0BD25
:1048C0000146142901DAF7480AE0282901DAF648F6
:1048D00006E03C2901DAF54802E0502900DAF44804
:1048E0007047F0B5024601209040441EE54301EABE
:1048F000050020FA02F601EA0400C2F1200C00FAD9
:104900000CF746EA07031846F0BDF0B50246C2F1BF
:10491000200C012000FA0CF0441EE54301EA0400DB
:1049200000FA02F601EA0500C2F1200C20FA0CF7A9
:1049300046EA07031846F0BD2DE9F04FDDB0074603
:104940008A4615460AF1080909F101094FEACA0029
:104950005B9048464FEAE97109EB91618E11484638
:104960004FEAE97109EB91618911A9EB81115C9121
:104970005C98002800DD761C5C98C0F14000814402
:10498000D04604E0002007F8080008F10108B8EB61
:10499000861FF7DB802007F80A000121C1EB861192
:1049A0005B9878545B98C0F307200221C1EB861115
:1049B00078545B98C0F307400321C1EB861178540B
:1049C0005B98000E0421C1EB86117854B9485690CB
:1049D000B9485790B748C0435890B748C04359901A
:1049E000B6485A904FF00008A5E0002452E0102C81
:1049F00032D24FEA881000EB8400385C000601A92F
:104A000041F824004FEA881000EB8400401C385C19
:104A100051F824104FF4803202FB001001A941F834
:104A200024004FEA881000EB8400801C385C51F8A9
:104A30002410121202FB001001A941F824004FEAD1
:104A4000881000EB8400C01C385C51F82410084426
:104A500001A941F824001CE0502C1AD2E01E01AA42
:104A600052F82000A4F1080201AB53F82220504074
:104A7000A4F10E0253F822205040A4F1100253F882
:104A8000222080EA02010120FFF73FFF01A941F83F
:104A90002400641C502CAAD35698559057985490D3
:104AA00058985390599852905A98519000242AE05F
:104AB00005205599FFF729FF83462046529B539ABC
:104AC0005499FFF7D7FE5844009051990098084434
:104AD00000902046FFF7F4FE00990844009001A8DA
:104AE00050F8241000980844009052985190539820
:104AF00052901E205499FFF708FF539055985490F8
:104B000000985590641C502CD2D35699559808445F
:104B10005690579954980844579058995398084478
:104B2000589059995298084459905A995198084464
:104B30005A9008F10108B045FFF657AF5698E87053
:104B40005698000AA8705698000C68705698000E87
:104B500028705798E8715798000AA8715798000C68
:104B600068715798000E28715898E8725898000A92
:104B7000A8725898000C68725898000E28725998BC
:104B8000E8735998000AA8735998000C68735998EB
:104B9000000E28735A98E8745A98000AA8745A9814
:104BA000000C68745A98000E28745DB0BDE8F08F50
:104BB0002DE9F04FADF5B36D07460E469246984687
:104BC000DDF8BC9540254FF0360B5C20CDF8940500
:104BD000002404E000200DF254510855641C402CC0
:104BE000F8DBAE421DD0AE420FDD4A4631463846B4
:104BF000FFF7A2FE002405E019F804000DF254515D
:104C00000855641C142CF7DB14E0AE4212DA0024C1
:104C100004E0385D0DF254510855641CB442F8DBD1
:104C200008E0002404E0385D0DF254510855641C7E
:104C3000AC42F8DB002408E00DF25450005D80EA3D
:104C40000B000DF214510855641C402CF4DB0024B9
:104C500005E00DF21450005D15A90855641C402CA8
:104C6000F7DB002406E01AF8041015AA04F140004E
:104C70001154641C4445F6DB08EB05014A4615A8AF
:104C8000FFF75AFE002409E00DF25450005DDDF8F4
:104C9000941548400DF2D4410855641C402CF3DBB8
:104CA000002413E09979825AA1EBD96EDCBC1B8FEA
:104CB000D6C162CA0123456789ABCDEFF0E1D2C30B
:104CC0000DF2D440005D0DF80400641C402CF7DBAD
:104CD000002406E019F8041004F140000DF800105B
:104CE000641C142CF6DB4A4605F114016846FFF7F4
:104CF00023FE0DF5B36DBDE8F08F00002DE9F04FF8
:104D000007468946099C00250026AC46A846AA46C7
:104D100000211CB900201060BDE8F08F0320B4FB17
:104D2000F0F04FF0030BB4FBFBFE0BFB1E4BBBF193
:104D3000000F02D04FF0010B01E04FF0000B00EB31
:104D40000B06B6F1804F05D34FF0FF3010606FF0C7
:104D50002900E1E7B600701C814500D327B9701C1B
:104D600010606FF02900D7E70320B4FBF0F000EBF0
:104D700040060025394629E013F801CB13F8018BD2
:104D800013F801AB87484FEA9C0B10F80B0001F8B1
:104D9000010B4FEA0C1000EB281000F03F00DFF889
:104DA00004B21BF8000001F8010B4FEA880000EB89
:104DB000AA1000F03F001BF8000001F8010B0AF0F8
:104DC0003F001BF8000001F8010BED1CB542D3D3E6
:104DD000A5422DD213F801CB681CA04202D213F8D1
:104DE000010B00E0002080466E48CCF3850B10F8E4
:104DF0000B0001F8010B4FEA0C1000EB281000F03B
:104E00003F00DFF8A0B11BF8000001F8010B681C9F
:104E1000A04207D23F2000EA88001BF8000001F8FA
:104E2000010B02E03D2001F8010B3D2001F8010BD0
:104E3000C81B10600020087000BF6DE72DE9F04727
:104E4000074689469046DDF820C000210022002454
:104E500000260025002004460246014645E00026C3
:104E600001E0491C761C614502D2585C2028F8D02C
:104E7000614500D13BE0ACEB0100022807D3585C50
:104E80000D2804D1481C185C0A2800D12CE0585C7D
:104E90000A2800D128E01EB16FF02B00BDE8F08792
:104EA000585C3D2806D1601C0446022802D96FF0E8
:104EB0002B00F3E7585C7F2806DC585CDFF8E8A09D
:104EC0001AF800007F2802D16FF02B00E6E7585C4B
:104ED000DFF8D4A01AF80000402803DA14B16FF00C
:104EE0002B00DBE7521C00BF491C6145B7D300BF54
:104EF0001AB90020C8F80000D0E7D00800EB400045
:104F00004FEA400A02F0070000EB40004000C01DDD
:104F10000AEBD002121B0FB1914504D2C8F8002051
:104F20006FF02900BAE703240020064602463D46FA
:104F300031E018780D2805D018780A2802D01878A2
:104F4000202800D125E01878DFF85CA01AF80000CE
:104F5000402801D1012000E00020241A1878DFF851
:104F600048A01AF8000066F39F100646501C02463F
:104F700004280DD1002214B1300C05F8010B012CCE
:104F800002D9300A05F8010B022C01D905F8016B92
:104F900000BF491E5B1C0029CBD1E81BC8F80000EC
:104FA00000207BE7D2C4000812C5000870B5044693
:104FB0000E460025206898B901202073304603F082
:104FC00099F820602068E0B100206060A66003E0EE
:104FD0000020216848556D1CA068A842F8D810E050
:104FE0000220207303E00020216848556D1CA06852
:104FF000A842F8D800206060A068B04201D200202A
:10500000206070BD10B50446207B012802D12068C5
:1050100003F09FF8002020606060A060207310BD46
:105020000246002301230DE002F07F000870D20940
:105030002AB1087840F080000870491C01E0184649
:1050400070475B1C042BEFDD4FF0FF30F8E7F0B545
:1050500004460D462646012300201060002114E07E
:10506000775C07F07F07106807FB03001060705C37
:1050700000F0800008B9481CF0BDDB01B3F5001F4B
:1050800002D36FF00100F7E7491CA942E8DB4FF0BB
:10509000FF30F1E7F8B50446FF2720780511012D10
:1050A00001DB0E2D01DD3846F8BD032D24D1002093
:1050B00000906A460421601CFFF7C9FF2044461C8B
:1050C0000098022803D3207800F0010008B1FF20E7
:1050D000EAE77078317840EA0120801C0099884224
:1050E00001D9FF20E0E7F8A1B01C03F013FC08B1E0
:1050F0000F2700E0032700E02F463846D4E72DE9CC
:10510000FF4F83B082468B469146159C00250020B8
:1051100002900F270190484603F032FC0FFA80F806
:10512000B9F1000F03D1012007B0BDE8F08F08F1FD
:105130000200384487B2109808B145F00205129871
:1051400078B145F00405129803F01AFCC0B2029041
:10515000139803F015FC01460298001D08443844DA
:1051600087B2119820B1012804D0022808D104E0A8
:1051700000BF07E045F00C0504E045F0140501E030
:105180000220D1E700BF149808B145F02405BAF118
:10519000000F02D0BBF1000F01D10320C4E745F09E
:1051A000C005504603F0ECFB0646584603F0E8FB0A
:1051B0003044001D384487B239462046FFF7F6FEDA
:1051C000206808B90420AFE73946206803F0C5FC21
:1051D00010216268501C606020688154D4E900236B
:1051E000D118781FFFF71CFF00B20190019800282A
:1051F00004DA2046FFF706FF052095E7616801986D
:105200000844606000216268501C6060206881541E
:1052100004216268501C6060206881544D216268DE
:10522000501C60602068815451216268501C60608D
:105230002068815454216268501C60602068815449
:105240006268501C60602068815404216268501CB0
:105250006060206881546168481C60602068455423
:105260000698010A6268501C6060206881540698A4
:10527000C1B26268501C606020688154C8F3072185
:105280006268501C6060206881546268501C6060D5
:10529000206800F80280D4E9001288184246494686
:1052A00003F026FB60684044606005F00400B8B37A
:1052B0000026139808B986A01390129803F060FB9B
:1052C00086B2310A6268501C60602068815462684E
:1052D000501C606020688654D4E900128818324659
:1052E000129903F005FB606830446060139803F086
:1052F00047FB86B2310A6268501C606020688154A6
:105300006268501C606020688654D4E900128818D6
:105310003246139903F0ECFA60683044606000BFD5
:1053200005F08000C8B1504603F02AFB86B2310A6E
:105330006268501C6060206881546268501C606024
:1053400020688654D4E9001288183246514603F08A
:10535000CFFA60683044606000BF05F04000C8B11B
:10536000584603F00DFB86B2310A6268501C60603B
:10537000206881546268501C606020688654D4E9BB
:10538000001288183246594603F0B2FA6068304479
:10539000606000BF0020C7E610B504460221204629
:1053A000FFF704FE206808B9012010BDE021626803
:1053B000501C60602068815400216268501C60604D
:1053C000206881540020F0E701464878022801D087
:1053D00001207047887810B18878012801D1C878F9
:1053E000F7E7FF20F5E72DE9FF4F83B08346174627
:1053F0009946139C002500260020029001908046CB
:10540000BBF1000F03D1012007B0BDE8F08F0026EB
:105410000AE00498805D232803D00498805D2B283F
:1054200001D10220F0E7761C0498805D0028F0D1BD
:1054300048F03008119808B148F0010806EB09005F
:10544000851C109820B1012804D002280AD105E05B
:1054500000BF09E048F00208AD1C05E048F0040870
:10546000AD1C01E00320CFE700BF67B33878022806
:1054700021D14FF0000A00BF50460AF1010A385C02
:105480007D28F9D1AAF1030A0AF1070002900298D7
:10549000A9EB000AE81CA0EB0A012046FFF786FDF5
:1054A000206808B90420AFE7EA1CA2EB0A012068D3
:1054B00003F053FB1FE0691D2046FFF777FD2068CE
:1054C00040B90420A0E70AE024637265710000007F
:1054D00000000000691D206803F03FFB0BE0691D20
:1054E0002046FFF763FD206808B904208CE7691D9A
:1054F000206803F032FB6168481C6060206800F897
:105500000180D4E9000281182846FFF789FD019047
:105510000198002804DA2046FFF774FD052073E7A0
:105520006168019808446060C6F307216268501CF6
:105530006060206881546268501C606020688654F6
:10554000D4E9001288183246049903F0D1F9606852
:1055500030446060109860B14FEA1B216268501CB3
:105560006060206881546268501C6060206800F8A8
:1055700002B0C7B1387802280BD1D4E900128818DC
:105580003946029A03F072FA616802980844606032
:1055900009E0D4E9001288184A46394603F066FA51
:1055A00060684844606000202EE72DE9F04190B02B
:1055B00004460D4616469846169F2346F7A230210C
:1055C00004A8009502F0A0FE01200021CDE9000111
:1055D00033460A4604A9CDE902070A20FFF703FF74
:1055E00018B1012010B0BDE8F0810020FAE72DE9E4
:1055F000F04F85B080460D4691460120049000276B
:10560000002600244FF0000A404603F0B9F900F1EB
:105610000D0B584602F06EFD07461FB9049805B001
:10562000BDE8F08F4246E5A1384602F057FE384605
:1056300003F0A6F9C6B2F01D00EB050AAAEB0500BF
:1056400002F058FD044624B9384602F082FD049861
:10565000E5E70220207000206070A67032463946CF
:10566000E01C03F003FA290EF01C2154C5F3074196
:10567000301D2154C5F30721701D2154B01D255440
:1056800001200021CDE9000153462246CFA1CDE9FA
:1056900002090A20FFF7A7FE08B900200490384647
:1056A00002F057FD204602F054FD0498B7E72DE9BB
:1056B000F84380460C4615461E462F2108F1060089
:1056C00003F00CF907460020009017B90120BDE84F
:1056D000F8837F1C6A46042108F10100FFF7B7FC3C
:1056E000252002F007FD2060206808B90220EEE7BF
:1056F0002521206803F031FA24223946206803F07E
:10570000B5F9243700982C3830803188481C02F0D5
:10571000F1FC2860286820B9206802F01AFD0320F7
:10572000D5E73288511C286803F017FA32883946C9
:10573000286803F09BF90020C9E72DE9FF5F0746C1
:105740000D469046384603F01BF986B2284603F012
:1057500017F91FFA80FA4FF00009F01D02F0CAFC99
:1057600004461CB9012004B0BDE8F09FF11D20469D
:1057700003F0F3F996A0016821608088A08032468A
:105780003946204603F0B4F8284603F0F9F883467A
:105790000120002100915B462A46CDE902080191D3
:1057A00021460A20FFF71FFE10B94FF0000901E063
:1057B0004FF00109204602F0CCFC4846D3E72DE922
:1057C000FF5F8046174699460E9C0026B246B346B8
:1057D0000025B8F1000F03D1012004B0BDE8F09F0F
:1057E0000BE057F8250008B90220F6E757F8250026
:1057F00003F0C6F80644681CC5B24D45F1DB09EB61
:105800004900801C00EB060A0AF105012046FFF75B
:10581000CDFB206808B90320DFE782216268501CB5
:10582000606020688154D4E9000281185046FFF777
:10583000F7FB0FFA80FBBBF1000F04DA2046FFF7FD
:10584000E1FB0420C9E76068584460604FEA182112
:105850006268501C6060206881546268501C6060FF
:10586000206800F80280002524E057F8250003F0A6
:1058700087F80646C6F307216268501C60602068FE
:1058800081546268501C606020688654D4E900230B
:10589000D01857F82510324603F02AF860683044D3
:1058A00060600198C1B26268501C606020688154D9
:1058B000681CC5B24D45D8DB00208EE70146FF20AD
:1058C0008A78A2B9CA78142A11D10A7932B1012A88
:1058D00005D0022A04D0802A06D103E000BF00BF11
:1058E000002003E0012001E0022000BF00BF70475C
:1058F0002DE9F05F80460F4691461C460026B246D1
:10590000B3460025B8F1000F02D10120BDE8F09F99
:105910000BE057F8250008B90220F7E757F82500F3
:1059200003F02EF80644681CC5B24D45F1DB022099
:1059300000EB490000EB060A0AF105012046FFF7DB
:1059400035FB206808B90320E0E7A2216268501CFB
:10595000606020688154D4E9000281185046FFF746
:105960005FFB0FFA80FBBBF1000F04DA2046FFF764
:1059700049FB0420CAE76068584460604FEA182178
:105980006268501C6060206881546268501C6060CE
:10599000206800F8028000253CE000002473797341
:1059A0002F25732F25732F7468696E672F70726FA0
:1059B00070657274792F706F737400007B2264734A
:1059C0005F6964223A222573227D000024647000FE
:1059D00024637273702F000057F8250002F0D0FF87
:1059E0000646C6F307216268501C60602068815437
:1059F0006268501C606020688654D4E90023D01887
:105A000057F82510324602F073FF6068304460603A
:105A1000681CC5B24D45DFDB002077E70146012059
:105A20008A781AB9CA781E2A00D1002070472DE959
:105A3000FC5F81460D4614461E46DDE90C8B99F845
:105A4000000000F00F0A002001900AF0080000900A
:105A5000CAF341008BF8000001AA042109F10100FA
:105A6000FFF7F5FA4844471C0198022802D30AF0D0
:105A7000010010B1FF20BDE8FC9F7878397840EA3A
:105A8000012020802088801C0199884201D9FF20B4
:105A9000F1E7AFF2CC51B81C02F03CFF08B10F2087
:105AA000E9E79BF8000020B101283DD0022877D11A
:105AB0003BE0009808B1FF20DDE72188481C02F098
:105AC00019FB2860286808B9FF20D4E72288511CF8
:105AD000286803F042F82288B91C286802F0C6FF43
